:1000000000400020F9070000390800003B0800000C
:1000100000000000000000000000000000000000E0
:100020000000000000000000000000003D0800008B
:1000300000000000000000003F0800004108000030
:100040004308000043080000430800004308000084
:1000500043080000000000004308000043080000BF
:100060004308000043080000430800004308000064
:100070004308000043080000430800004308000054
:100080004308000043080000430800004308000044
:100090004308000043080000430800004308000034
:1000A00043080000430800000000000000000000BA
:1000B0000000000000000000000000000000000040
:1000C00010B5064C2378002B07D1054B002B02D02E
:1000D000044800E000BF0123237010BD3804002055
:1000E00000000000340E0000044B10B5002B03D0BC
:1000F0000349044800E000BF10BDC04600000000F6
:100100003C040020340E0000164B002B00D1144B91
:100110009D46402292029A1A924600218B460F4633
:100120001348144A121A00F0C1FB0F4B002B00D0E9
:1001300098470E4B002B00D0984700200021040068
:100140000D000D48002802D00C4800F095FC00F08E
:1001500089FB2000290000F013F800F073FBC04673
:100160000000080000400020000000000000000027
:100170003804002078040020790A0000890A000071
:1001800080B58AB000AF04237B6213E001227B6A52
:100190009A401100A023DA05A323DB00D1500122ED
:1001A0007B6A9A40A023DB051100144A99507B6AB0
:1001B00001337B627B6A0F2BE8DD00F021F82323FB
:1001C000FB1841221A700EE023217B181B78413B5B
:1001D0003A1D080079180978D15401007B181A7863
:1001E0007B1801321A702323FB181B785A2BEBD98A
:1001F0003B1D180000F0B8F8E1E7C0460C05000010
:1002000080B500AF00F004F8C046BD4680BD0000D8
:1002100080B582B000AF04237B600BE001227B68D5
:100220009A401100A023DA05A123DB00D1507B689E
:1002300001337B607B680C2BF0DD0D233B600AE013
:1002400001223B689A40A023DB051100054A995022
:100250003B6801333B603B680F2BF1DDC046BD4678
:1002600002B080BD0C05000090B587B000AF020061
:10027000FB1D1A70BB1D0A1C1A700C203B18184A73
:1002800012CA12C3FB1D1978BB1D1A7804003B1853
:10029000180000F08BF820003B181A6817217B1813
:1002A0001A703B185A6816203B181A707B181B7876
:1002B00001229A401100A023DA05A123DB00D150CE
:1002C0003B181B7801229A40A023DB051100054A48
:1002D0009950FFF79DFFC046BD4607B090BDC04690
:1002E000B00D00000C05000080B586B000AF020024
:1002F000FB1D1A70FB1D1B78203BFB6000237B61FC
:1003000028E00B23F9181748FA6813009B009B1884
:10031000C2187B69D3181B780B7000233B6113E074
:100320000B23FB181A783B699A40130010221340E4
:1003300007D07B69DBB23A69D2B211001800FFF72F
:1003400093FF3B6901333B613B69042BE8DD7B692B
:1003500001337B617B69042BD3DDC046BD4606B00B
:1003600080BDC046D40B000080B584B000AF78607B
:100370000D4BFB600FE07B681B781800FFF7B4FFA4
:10038000FB68013BFB60FB68002BF4D17B68013309
:100390007B60054BFB607B681B78002BF0D1C0466F
:1003A000BD4604B080BDC046C409000080B586B01B
:1003B00000AFF860B9607A601723FB18FF221A704B
:1003C0001623FB18FF221A70BB68042B00D924E106
:1003D000BB689A00984BD3181B689F467B68042B18
:1003E00000D911E17B689A00944BD3181B689F4693
:1003F0001623FB180F221A701723FB1806221A70F7
:1004000023E01623FB180D221A701723FB180B226A
:100410001A701AE01623FB180E221A701723FB1805
:1004200005221A7011E01623FB180F221A701723E9
:10043000FB1807221A7008E01623FB180D221A7009
:100440001723FB1804221A70C046DDE07B68042BDA
:1004500000D9DBE07B689A00794BD3181B689F4674
:100460001623FB180E221A701723FB180A221A7083
:1004700023E01623FB180D221A701723FB180A22FB
:100480001A701AE01623FB180D221A701723FB1896
:100490000C221A7011E01623FB180F221A70172372
:1004A000FB1808221A7008E01623FB180E221A7097
:1004B0001723FB1807221A70C046A7E07B68042B9D
:1004C00000D9A5E07B689A005E4BD3181B689F4655
:1004D0001623FB180F221A701723FB1804221A7018
:1004E00023E01623FB180D221A701723FB1809228C
:1004F0001A701AE01623FB180E221A701723FB1825
:1005000006221A7011E01623FB180F221A70172307
:10051000FB1809221A7008E01623FB180D221A7026
:100520001723FB1805221A70C04671E07B68042B64
:1005300070D87B689A00444BD3181B689F461623DB
:10054000FB180E221A701723FB1809221A7023E0D9
:100550001623FB180D221A701723FB1808221A7095
:100560001AE01623FB180F221A701723FB180C220F
:100570001A7011E01623FB180F221A701723FB18AC
:100580000A221A7008E01623FB180E221A7017238D
:10059000FB1808221A70C0463CE07B68042B3BD84D
:1005A0007B689A00294BD3181B689F461623FB18BB
:1005B0000F221A701723FB1805221A7023E0162346
:1005C000FB180D221A701723FB1807221A701AE065
:1005D0001623FB180E221A701723FB1804221A7018
:1005E00011E01623FB180F221A701723FB180B2299
:1005F0001A7008E01623FB180D221A701723FB1837
:1006000006221A70C04607E0C04606E0C04604E075
:10061000C04602E0C04600E0C0461623FB181A7828
:10062000FB681A60FB6804331722BA1812781A6044
:10063000C046BD4606B080BDB80D0000CC0D000020
:10064000E00D0000F40D0000080E00001C0E00007C
:1006500080B500AF00F036F8031E06D0134B144AE5
:100660001A60144B802212021A6000F06BF8031E0D
:1006700005D08023DA05C123DB000121D15000F031
:1006800087F8031E0ED00C4B1B68012B07D00A4BBA
:100690000A4A1A60C046084B1B68012BFBD1084B65
:1006A000C0221A60C046BD4680BDC0460405004059
:1006B000DFFF07C0186C004000EC06407593000097
:1006C00014EC064080B500AF1A4B1B68FF221340A4
:1006D000012B2AD1184B1B680F22134025D1174B31
:1006E0001B68F022134006D1154B1B68F022134003
:1006F00001D101231AE0114B1B68F0221340102B8B
:1007000006D10F4B1B68F022134001D101230DE0ED
:100710000A4B1B68F0221340302B06D1084B1B6894
:10072000F022134001D1012300E000231800BD4650
:1007300080BDC046E00F00F0E40F00F0E80F00F0CD
:10074000EC0F00F080B500AF0D4B1B68FF2213408B
:10075000012B11D10B4B1B680F2213400CD10A4BFC
:100760001B68F0221340402B06D1084B1B68F02277
:10077000134001D1012300E000231800BD4680BDD5
:10078000E00F00F0E40F00F0E80F00F0EC0F00F0D5
:1007900080B500AF144B1B68FF221340012B1ED104
:1007A000124B1B680F22134019D1114B1B68F0220A
:1007B0001340A02B06D10F4B1B68F022134001D130
:1007C00001230DE00A4B1B68F0221340D02B06D109
:1007D000084B1B68F022134001D1012300E00023E5
:1007E0001800BD4680BDC046E00F00F0E40F00F0E9
:1007F000E80F00F0EC0F00F003210A4802680A43FA
:100800000260094802680A4302600849084A094B25
:100810009B1A03DD043BC858D050FBDCFFF718FFE0
:10082000FFF772FC2405004054050040400E000014
:100830000000002038040020FEE7FEE7FEE7FEE7A8
:10084000FEE7FEE710B50021040000F089F8044B34
:100850001868C36B002B00D09847200000F0ACF95B
:10086000300E000070B50D4E0D4DAD1BAD1006D015
:100870000024A300F35801349847A542F9D100F0B1
:100880009DF9084E084DAD1BAD1006D00024A30005
:10089000F35801349847A542F9D170BD2C040020CB
:1008A0002C0400202C04002034040020F0B5830721
:1008B00046D0541E002A42D0CEB20200032502E0E8
:1008C0001A00013C3BD3531C16702B42F8D1032C69
:1008D0002DD9FF220A40150215432A0415430F2C77
:1008E00016D92700103F3F093E01B4461E001A00EA
:1008F00010366644156055609560D5601032B2427E
:10090000F8D10F2201373F01DB191440032C0ED917
:10091000261FB608B700BC461A001F1D674420C238
:10092000BA42FCD103220136B6009B191440002CB8
:1009300005D0C9B21C19197001339C42FBD1F0BD1E
:1009400014000300C3E7C046034B10B5002B02D0D0
:10095000024800F091F810BD00000000890A000074
:10096000F0B5DE4657464E464546E0B53F4B87B0AC
:100970001B680590180001930F0000F09FF83C4B96
:100980001B6803934933FF330493A422039B520053
:100990009E58002E4BD0049B9A4601239B467468B8
:1009A000651E32D4C4235B00994604339C46B4448C
:1009B00063460134A4003419B144019302E0043CBD
:1009C000013D22D3002F04D0631CFF331B68BB42C0
:1009D000F5D173682268013BAB4233D0002323601A
:1009E000002AECD07368494698465B46AB400968DC
:1009F000194229D1904773684345C6D153461B68B5
:100A0000B342C2D1043C013DDCD21A4B002B0ED0C4
:100A100072683368002A22D1002B20D05246300061
:100A2000136000E000BF53461E68002EB7D10F4B85
:100A3000186800F045F807B03CBC90469946A246BD
:100A4000AB46F0BD7560CBE72100019880310068AE
:100A500009680290184205D105989047CBE7B24645
:100A60001E00E2E708009047C5E7C04628040020C2
:100A7000300E00000000000010B50100002300222D
:100A8000002000F01FF810BD70B5094B094CE41AA6
:100A9000A41009D0084AA518AD00ED182B68013C38
:100AA0009847043D002CF9D100F08EF870BDC04687
:100AB0003404002038040020FFFFFF3F7047C04689
:100AC0007047C046F0B54E464546DE465746E0B54F
:100AD000364D83B00600286898460F009146FFF710
:100AE000EDFF334B1C68A4235B00E058002852D074
:100AF00043681F2B13DC5A1C0192002E28D1019A47
:100B000002339B0042601F502868FFF7D9FF002086
:100B100003B03CBC90469946A246AB46F0BD254B7F
:100B2000002B3DD0C820400000E000BF002837D097
:100B3000A42200235200A15843600160A05040321B
:100B4000835004328350013301930023002ED6D00A
:100B50009A00924682444A46882154466250C422F2
:100B60005200914681444A468739994012688B4623
:100B70000A4394464A466146116084224146520027
:100B8000A150022EBBD102005C468D32FF321168AB
:100B90000C431460B3E720004D30FF30E050A7E76E
:100BA0002868FFF78DFF01204042B1E728040020AC
:100BB000300E000000000000FEE7C046F8B5C04659
:100BC000F8BC08BC9E467047F8B5C046F8BC08BCE7
:100BD0009E4670470000000000000000000000007A
:100BE0000000000000000000000000000000000005
:100BF00000000000000000000000000000000000F5
:100C000000000000000000000000000000000000E4
:100C100000000000000000000000000000000000D4
:100C200000000000000000000000000000000000C4
:100C300000000000000000000000000000000000B4
:100C400000000000000000000000000000000000A4
:100C50000000000000000000000000000000000094
:100C60000000000000000000000000000000000084
:100C70000000000000000000001E05051E001F15FA
:100C8000150A000E111111001F11110E001F15156C
:100C900015001F050505000E151508001F04041F8B
:100CA00000001F0000000810100F001F040A1100B0
:100CB0001F101010001F0204021F1F02041F000E4D
:100CC00011110E001F050502000E11111E101F0547
:100CD000051A001715151D0001011F01010F101045
:100CE0000F00030C100C031F0804081F110A040A4C
:100CF0001101021C0201111915131100000000005E
:100D000000000000000000000000000000000000E3
:100D100000000000000000000000000000000000D3
:100D200000000000000000000000000000000000C3
:100D300000000000000000000000000000000000B3
:100D400000000000000000000000000000000000A3
:100D50000000000000000000000000000000000093
:100D60000000000000000000000000000000000083
:100D70000000000000000000000000000000000073
:100D80000000000000000000000000000000000063
:100D90000000000000000000000000000000000053
:100DA0000000000000000000000000000000000043
:100DB000FFFFFFFFFFFFFFFFDC0300004C0400000C
:100DC000BC0400002C0500009A050000F0030000A0
:100DD000020400001404000026040000380400008F
:100DE0006004000072040000840400009604000007
:100DF000A8040000D0040000E2040000F404000095
:100E000006050000180500003E0500005005000022
:100E1000620500007405000086050000AC050000B6
:100E2000BE050000D0050000E2050000F40500004A
:080E300000000020000000009A
:080E3800D0F2FF7F0100000071
:100E400000000000EC02002054030020BC0300203E
:100E50000000000000000000000000000000000092
:100E60000000000000000000000000000000000082
:100E70000000000000000000000000000000000072
:100E80000000000000000000000000000000000062
:100E90000000000000000000000000000000000052
:100EA0000000000000000000000000000000000042
:100EB0000000000000000000000000000000000032
:100EC0000000000000000000000000000000000022
:100ED0000000000000000000000000000000000012
:100EE0000000000000000000010000000000000001
:100EF0000E33CDAB34126DE6ECDE05000B000000C6
:100F000000000000000000000000000000000000E1
:100F100000000000000000000000000000000000D1
:100F200000000000000000000000000000000000C1
:100F300000000000000000000000000000000000B1
:1012600000000000000000005404002049090000B4
:08127000E9000000C1000000CC
:04000003000007F9F9
:00000001FF
