:1000000000400020E9080000290900002B09000039
:1000100000000000000000000000000000000000E0
:100020000000000000000000000000002D0900009A
:1000300000000000000000002F090000310900004E
:1000400033090000330900003309000033090000C0
:1000500033090000000000003309000033090000EC
:1000600033090000330900003309000033090000A0
:100070003309000033090000330900003309000090
:100080003309000033090000330900003309000080
:100090003309000033090000330900003309000070
:1000A00033090000330900000000000000000000D8
:1000B0000000000000000000000000000000000040
:1000C00010B5064C2378002B07D1054B002B02D02E
:1000D000044800E000BF0123237010BDBC090020CC
:1000E00000000000103E0000044B10B5002B03D0B0
:1000F0000349044800E000BF10BDC04600000000F6
:10010000C0090020103E0000164B002B00D1144BFC
:100110009D46402292029A1A924600218B460F4633
:100120001348144A121A00F04BFC0F4B002B00D05E
:1001300098470E4B002B00D0984700200021040068
:100140000D000D48002802D00C4801F03BFC00F0E7
:1001500001FC2000290000F013F800F0EBFBC04682
:100160000000080000400020000000000000000027
:10017000BC090020380A0020C5190000591C0000E5
:1001800080B582B000AF00F033F800F04BFAFB1DF1
:1001900041221A70144B3B60FA23DB003B6004E001
:1001A000FB1D1B78180000F0ABF83B685A1E3A6044
:1001B000002BF5D1FB1D1A78FB1D01321A70FB1DB7
:1001C0001B78180000F076FAFB1D1A78074B110017
:1001D000180000F0E3FBFB1D1B785A2BDCD9FB1D3C
:1001E00041221A70D8E7C04610270000D43800001A
:1001F00080B582B000AF04237B600BE001227B68F6
:100200009A401100A023DA05A323DB00D1507B68BC
:1002100001337B607B680F2BF0DD00F005F8C046F2
:10022000BD4602B080BD000080B582B000AF04239F
:100230007B600BE001227B689A401100A023DA0565
:10024000A123DB00D1507B6801337B607B680C2BE2
:10025000F0DD0D233B600AE001223B689A40A023B9
:10026000DB051100054A99503B6801333B603B6850
:100270000F2BF1DDC046BD4602B080BD0C0500006D
:1002800090B587B000AF0200FB1D1A70BB1D0A1CA1
:100290001A700C203B18184A12CA12C3FB1D197899
:1002A000BB1D1A7804003B18180000F069F8200004
:1002B0003B181A6817217B181A703B185A681620C9
:1002C0003B181A707B181B7801229A401100A0235A
:1002D000DA05A123DB00D1503B181B7801229A409C
:1002E000A023DB051100054A9950FFF79DFFC0468A
:1002F000BD4607B090BDC046C43A00000C050000E2
:1003000080B586B000AF0200FB1D1A70FB1D1B7884
:10031000203BFB6000237B6128E00B23F918174882
:10032000FA6813009B009B18C2187B69D3181B78CE
:100330000B7000233B6113E00B23FB181A783B6919
:100340009A4013001022134007D07B69DBB23A6950
:10035000D2B211001800FFF793FF3B6901333B61F4
:100360003B69042BE8DD7B6901337B617B69042BEE
:10037000D3DDC046BD4606B080BDC046E8380000AB
:1003800080B586B000AFF860B9607A601723FB18BB
:10039000FF221A701623FB18FF221A70BB68042B69
:1003A00000D924E1BB689A00984BD3181B689F467C
:1003B0007B68042B00D911E17B689A00944BD31819
:1003C0001B689F461623FB180F221A701723FB1871
:1003D00006221A7023E01623FB180D221A70172329
:1003E000FB180B221A701AE01623FB180E221A7043
:1003F0001723FB1805221A7011E01623FB180F2291
:100400001A701723FB1807221A7008E01623FB182E
:100410000D221A701723FB1804221A70C046DDE063
:100420007B68042B00D9DBE07B689A00794BD318FA
:100430001B689F461623FB180E221A701723FB1801
:100440000A221A7023E01623FB180D221A701723B4
:10045000FB180A221A701AE01623FB180D221A70D4
:100460001723FB180C221A7011E01623FB180F2219
:100470001A701723FB1808221A7008E01623FB18BD
:100480000E221A701723FB1807221A70C046A7E025
:100490007B68042B00D9A5E07B689A005E4BD318DB
:1004A0001B689F461623FB180F221A701723FB1890
:1004B00004221A7023E01623FB180D221A7017234A
:1004C000FB1809221A701AE01623FB180E221A7064
:1004D0001723FB1806221A7011E01623FB180F22AF
:1004E0001A701723FB1809221A7008E01623FB184C
:1004F0000D221A701723FB1805221A70C04671E0EE
:100500007B68042B70D87B689A00444BD3181B6817
:100510009F461623FB180E221A701723FB18092278
:100520001A7023E01623FB180D221A701723FB18EC
:1005300008221A701AE01623FB180F221A701723CC
:10054000FB180C221A7011E01623FB180F221A70E8
:100550001723FB180A221A7008E01623FB180E2234
:100560001A701723FB1808221A70C0463CE07B68FB
:10057000042B3BD87B689A00294BD3181B689F46F5
:100580001623FB180F221A701723FB1805221A7066
:1005900023E01623FB180D221A701723FB180722DD
:1005A0001A701AE01623FB180E221A701723FB1874
:1005B00004221A7011E01623FB180F221A70172359
:1005C000FB180B221A7008E01623FB180D221A7074
:1005D0001723FB1806221A70C04607E0C04606E043
:1005E000C04604E0C04602E0C04600E0C046162314
:1005F000FB181A78FB681A60FB6804331722BA18D4
:1006000012781A60C046BD4606B080BDCC3A0000E4
:10061000E03A0000F43A0000083B00001C3B0000F8
:10062000303B000080B500AFA023DA05A323DB0038
:10063000D358A022D205802149041943A323DB000B
:10064000D150A023DB05154A9A58A023DB05144995
:100650000A4012495A50134A134B1821D150114ADB
:100660000E4B1921D1500F4A104B1149D1500D4951
:10067000A223DB0001225242CA500A49A123DB0017
:1006800001225242CA50074AA023DB000421D15064
:10069000044B01221A60C046BD4680BD140500000F
:1006A000FFFFFFFD002000400C05000024050000B6
:1006B0000050270080B582B000AF0200FB1D1A7009
:1006C0000D4B01229A600C4A8E235B000021D15011
:1006D0000949FB1D1B78094A8B50C046064A8E23E8
:1006E0005B00D358002BF9D0034B0122DA60C046DF
:1006F000BD4602B080BDC046002000401C05000081
:1007000080B586B000AFF860B9607A60BB687B6185
:1007100000233B610AE07B691B781800FFF7CAFFE2
:100720007B6901337B613B6901333B613B697A68DB
:100730009A42F0D87B681800BD4606B080BD000024
:1007400080B500AF00F036F8031E06D0134B144AF4
:100750001A60144B802212021A6000F06BF8031E1C
:1007600005D08023DA05C123DB000121D15000F040
:1007700087F8031E0ED00C4B1B68012B07D00A4BC9
:100780000A4A1A60C046084B1B68012BFBD1084B74
:10079000C0221A60C046BD4680BDC0460405004068
:1007A000DFFF07C0186C004000EC064075930000A6
:1007B00014EC064080B500AF1A4B1B68FF221340B3
:1007C000012B2AD1184B1B680F22134025D1174B40
:1007D0001B68F022134006D1154B1B68F022134012
:1007E00001D101231AE0114B1B68F0221340102B9A
:1007F00006D10F4B1B68F022134001D101230DE0FD
:100800000A4B1B68F0221340302B06D1084B1B68A3
:10081000F022134001D1012300E000231800BD465F
:1008200080BDC046E00F00F0E40F00F0E80F00F0DC
:10083000EC0F00F080B500AF0D4B1B68FF2213409A
:10084000012B11D10B4B1B680F2213400CD10A4B0B
:100850001B68F0221340402B06D1084B1B68F02286
:10086000134001D1012300E000231800BD4680BDE4
:10087000E00F00F0E40F00F0E80F00F0EC0F00F0E4
:1008800080B500AF144B1B68FF221340012B1ED113
:10089000124B1B680F22134019D1114B1B68F02219
:1008A0001340A02B06D10F4B1B68F022134001D13F
:1008B00001230DE00A4B1B68F0221340D02B06D118
:1008C000084B1B68F022134001D1012300E00023F4
:1008D0001800BD4680BDC046E00F00F0E40F00F0F8
:1008E000E80F00F0EC0F00F003210A4802680A4309
:1008F0000260094802680A4302600849084A094B35
:100900009B1A03DD043BC858D050FBDCFFF718FFEF
:10091000FFF7FAFB24050040540500401C3E000090
:1009200000000020BC090020FEE7FEE7FEE7FEE72E
:10093000FEE7FEE710B50021040000F0B7FF044B0E
:100940001868C36B002B00D09847200002F0B4FF5A
:10095000443B000070B50D4E0D4DAD1BAD1006D0E3
:100960000024A300F35801349847A542F9D102F0BE
:10097000A5FF084E084DAD1BAD1006D00024A30006
:10098000F35801349847A542F9D170BDB009002051
:10099000B0090020B0090020B80900200FB400B54C
:1009A000064983B004AB086804CB8168019300F06A
:1009B00095F803B008BC04B01847C04600000020FA
:1009C000F0B5830746D0541E002A42D0CEB20200B2
:1009D000032502E01A00013C3BD3531C16702B4246
:1009E000F8D1032C2DD9FF220A40150215432A0401
:1009F00015430F2C16D92700103F3F093E01B4467E
:100A00001E001A0010366644156055609560D5606A
:100A10001032B242F8D10F2201373F01DB191440E6
:100A2000032C0ED9261FB608B700BC461A001F1D9E
:100A3000674420C2BA42FCD103220136B6009B199A
:100A40001440002C05D0C9B21C19197001339C4206
:100A5000FBD1F0BD14000300C3E7C046F8B54E4615
:100A60004546DE4657464B6EE0B580460E00914641
:100A70009B0430D513689A469368002B29D05246C0
:100A8000146852689346970818D0002503E0013592
:100A90000434AF4210D032002168404601F040F9E2
:100AA000431CF4D14A460023936053603CBC9046FB
:100AB0009946A246AB46F8BD4B469B685A46032171
:100AC0008A439B1A4A46936008229446E244002BCC
:100AD000D5D10020E6E701F08BFAE3E7F0B5574601
:100AE0004546DE464E46E0B5ADB008908A46904693
:100AF0001C000993002804D0836B0093002B00D1C5
:100B0000B2E3534652460C21595E526E8BB2D20765
:100B100003D49A0501D400F028FD802292011342EB
:100B200009D10A43534651469A81496EC64B0B4040
:100B300051464B6693B21A0700D4F1E0524612694F
:100B4000002A00D1ECE01A221A400A2A00D168E3F8
:100B50001CAB0F930023D3464446119310931CAE55
:100B60000B9304932378002B01D100F023FC250084
:100B7000252B02D123E0252B03D001352B78002B28
:100B8000F9D12F1B16D0119B3460FA18109B776097
:100B900000930133119210930836072B05DD002ACC
:100BA00001D000F09CFC10921CAE049B9C46BC44FF
:100BB000634604932B78002B01D100F0FBFB00234C
:100BC0000CAAD37100229446013A009200220592A9
:100BD000203290462032924640326C1C6B780020C6
:100BE000002591461A00203A0134582A00D9C1E064
:100BF000964992008A58974610231D43AB0600D4AD
:100C0000D5E20722099B0CA907339343013294468E
:100C10009C44624609921A685B6806920793002317
:100C2000CB71009B0122013356D1002398460195D8
:100C3000012A00D12DE1022A00D1C4E306980799C8
:100C400007231CAAA1469C46B246140000E03C00C3
:100C50004E07C2086346CD081643290035000340FD
:100C6000671E30333B7030000D43F0D10690079182
:100C70000199220056464C46C90700D4BCE3302BEC
:100C800000D1B9E33023971E3B701CABDB1B0393F1
:100C9000009B039A9A46934200DA924643465A1EB4
:100CA00093419A441BE110231D43AB0600D4B3E0EB
:100CB0000722099B07339343013294469C446246C2
:100CC00009921A685B6806920793002200230CA918
:100CD000CB71009B0133A8D00023984680232900C4
:100CE000994301910698079903000B43A0D1009BFB
:100CF000002B01D000F0B2FC002A01D000F0EAFB8A
:100D0000012003002B4003931CAF002BC0D02723EE
:100D1000302112AAD1540CAB3F279C466744B7E759
:100D20005146089800F04CFD5346002800D172E26D
:100D30005B6EDB0705D453469B899B0501D400F00D
:100D400044FC01235B420493BCE3303B00211A00C6
:100D50008B005B185B00D1182378671C1A00303AAF
:100D60003C00092AF4D905913C001A00203A582A7F
:100D700000D83DE7002801D000F0D4FC002B00D1C2
:100D800018E312AF3B7000230CAAD37101339A46CB
:100D90000393A1E04B461D43237823E72378611C8E
:100DA0002A2B01D100F09BFC1A000024303A009459
:100DB0000F00092AD8D80024A3001B195B009C1837
:100DC0000B784F1C1A00303A3900092AF4D90094E4
:100DD0003C00CAE723780422154303E72B2223783B
:100DE00001209446FEE6099A2378116804320591A1
:100DF0000992002900DBF5E64A420592EBE7012360
:100E00001D432378EEE662462378002A00D0E9E607
:100E1000203201209446E5E6099A08CA0992EA06BA
:100E200002D46A0600D59BB20693002300220793E2
:100E30004CE723786C2B00D1C1E310221543D1E697
:100E400053461D432378CDE6FFDFFFFF483B0000FC
:100E5000002801D000F05DFCAB0600D484E107223D
:100E6000099B07339343013294469C44624609929E
:100E70001A685B6806920793079B002B00DA43E32E
:100E80000CABDB799846009B0122013300D025E7AB
:100E90000195069A079B002B00D0BBE3092A00D9D5
:100EA000B8E32722069B12A930338B540123039306
:100EB0000CAB3F279C466744EAE6099A12AF1368D9
:100EC0000CA900936B461B783B700023CB71131D5C
:100ED000099301239A46039300230195009302236B
:100EE000019A1A40914602D002239C46E244842390
:100EF000019A11981A40109B15000A925A1C9446A8
:100F0000002D34D15146059D6D1A002D2FDD102D79
:100F100000DCBFE3CF4AA0466146140006E09A1CFD
:100F20000B000836103D102D11DD591C1022103019
:100F300034607260119010910729F0DD002800D014
:100F40005EE2103D002301221CAE102DEDDC2300DB
:100F5000944644469846434633606346401975605C
:100F600011901093072B00DD6EE208365A1C3100F9
:100F7000083102910CA9CD79002D00D192E10B002E
:100F80000733336001230130736011901092072AF8
:100F900000DC6AE2002800D076E14B46002B00D04E
:100FA0006AE21EAA029201221CAE0A9D802D00D187
:100FB00092E1009D03996D1A002D34DD102D00DCA7
:100FC0005FE3A54A9046102291464246A04614008F
:100FD00005E09A1C0B000836103D102D11DD4A4625
:100FE0001030591C34607260119010910729F0DDA7
:100FF000002800D03BE1103D012200231CAE102D43
:10100000EDDC23004446984633000833414640193E
:1010100022C611901092072A00DD3CE219001E0042
:10102000083101320291039B37609C466044736033
:1010300011901092072A00DC98E1002800D08AE184
:10104000019B10905B0739D55246059B9D1A002DD8
:1010500034DD1CA90291109A102D00DC1DE37D4B9C
:10106000102602991F00A04605E0941C1A000831C2
:10107000103D102D10DD1030531C0F604E6011908C
:101080001093072BF1DD002800D0C5E1103D0124AD
:1010900000221CA9102DEEDC3B0027004446984698
:1010A00002914346029A40191360556011901097BF
:1010B000072F00DC63E1002800D076E2059B534552
:1010C00000DA5346049A94469C446346049369E1CB
:1010D000099B1A1D1F68002391460CAAD371002F8B
:1010E00000D17AE2009A531C00D1CEE200213800F0
:1010F00001F070FC002800D1E5E2C31B03930CABA8
:10110000DB79019598464B46099300230093BFE590
:10111000002800D002E3514A0B92AA0639D50721D4
:10112000099A07328A4301318C46944461460991F9
:1011300011685268069107920222E90700D4C5E5BA
:101140000698079907000F4300D1BFE530200EA98C
:1011500008704B701543B9E5002800D0D5E2102384
:101160001D43AB0600D57AE6099A08CA0992EA0639
:1011700000D5C2E16A0600D4BFE11BB20693DB17BB
:10118000079379E6002800D0B7E2354A0B92AA0609
:10119000C5D4099904C90991E90600D5A9E16906F0
:1011A00000D4A6E192B2069200220792C4E7099AFF
:1011B00008CA0992EA0602D46A0600D59BB20693D1
:1011C00000230122079381E50999264A0B680693BB
:1011D0000023079302331D430EAB1A800B1D0993A6
:1011E0001F4B02220B9371E543461D432378F9E41C
:1011F000002800D085E2099A08CA0992AA0600D5FB
:10120000BDE1EA0600D525E26A0600D422E26A467C
:10121000128A1A80A6E41A229B891A400A2A00D050
:1012200096E452460E21525E002A00DA90E45246BD
:10123000526ED20705D49B0503D45346986D01F036
:101240008FF8230042465146089800F075FA049042
:1012500038E1C046DC3C0000EC3C0000AC3C000047
:10126000C03C00003078000000F0B6FC49E40FAA52
:1012700059460898FFF7F2FB002800D016E1109BB2
:1012800011985A1C1CAEA7E60FAA59460898FFF7FA
:10129000E5FB002800D009E1109B1EA911985A1CFB
:1012A00002911CAE4946002900D17EE60EAB3360A8
:1012B00002230230736011901092072A00DCE3E0F1
:1012C000002800D02CE10A9D1EAB029301220023CE
:1012D0001CAE802D00D06CE6554605994D1B002DA7
:1012E00000DC66E6102D00DCE7E1C84A90461022DB
:1012F00091464246A046140005E0991C13000836AA
:10130000103D102D11DD4A46103072605A1C3460B9
:1013100011901092072AF0DD002800D088E0103DDF
:10132000012100231CAE102DEDDC2300444698461D
:10133000082399468C46B144434628C66346401963
:1013400011901093072B00DDF8E0494608315A1C34
:1013500002914E462DE60FAA59460898FFF77EFBEC
:10136000002800D0A2E01CA911980291019B5B0704
:1013700005D55246059B9D1A002D00DD6BE6059BA9
:10138000534500DA5346049A94469C4463460493BA
:10139000002807D00FAA59460898FFF75FFB0028DE
:1013A00000D083E00023109323781CAE002B01D0E3
:1013B000FFF7DDFB119BDA460093002B00D070E1B4
:1013C0000023109373E00F20069A079BB446A146B2
:1013D0000B9C1CAF01001140615C1E071509013F09
:1013E0002E43397019090B00310032001943F1D135
:1013F00066464C46069207931CABDB1B039347E4FF
:101400000FAA59460898FFF729FB00284ED1109BD8
:1014100011985A1C1CAE85E50FAA59460898FFF78B
:101420001DFB002842D1109A1198541C1CA91FE6DC
:101430000FAA59460898FFF711FB002836D1109BD8
:101440001198591C1CAE5BE7002800D00CE10CABD6
:10145000DB79002B00D198E00CAB07331C93012300
:10146000012201201D931EAB0293029913000E006E
:1014700008310132029115E70EAB1C9302230122C1
:1014800002201D931EAB0293029913000E00083137
:101490000132029189E5002858D101230398109365
:1014A0001EAB1C971D90119002935FE7DA465246DF
:1014B0005346526E9B89D20701D49A056ED55B06BE
:1014C00000D53EE404982DB03CBC90469946A24617
:1014D000AB46F0BD00231CAF0393FFF7D9FB0FAA67
:1014E00059460898FFF7BAFA0028DFD11CAEFFF77B
:1014F0005CFB0692002207921EE60693DB17079319
:10150000079B002B00DBBBE40698079900234242AF
:101510008B41069207932D230CAAD3719846B2E40F
:101520000FAA59460898FFF799FA0028BED1109BD8
:101530001EA911985A1C02911CAE36E5002856D1FE
:101540001EAB0293012200231CAE32E50FAA5946BE
:101550000898FFF783FA0028A8D1109B11980093F0
:101560005A1C1EAB02931CAE5DE55346986D00F00D
:10157000F5FE53460C21595E8BB2FFF7CEFA049A62
:101580001A60D2175A60FFF7EDFA4B46002B00D0D5
:1015900072E71EAA02921CAE01220AE55346986D1C
:1015A00000F0DEFE53469B8989E70FAA594608984A
:1015B000FFF754FA002800D078E71198DFE6434699
:1015C00001341D432378FFF70DFB5346986D00F05F
:1015D000C7FE01235B42049374E7009B0393062B31
:1015E00068D8039B0A4F9A464B46099374E40FAAA6
:1015F00059460898FFF732FA002800D056E7109BAA
:101600001EA911985A1C02911CAED2E4EC3C0000B9
:10161000D43C00001CAFA146069C079D2000290079
:101620000A22002302F006F8013F30323A7000230C
:10163000200029000A2201F0FDFF030004000D0034
:101640000B43EBD11CABDB1B0694079503934C4675
:10165000FFF71EFB049A1A60FFF784FA012A01D0F3
:10166000FFF7E9FAFFF71DFC0FAA59460898FFF7A4
:10167000F5F9002800D019E7109B11985A1C1CAEF0
:1016800075E42B49029B8846C0E4380001F0BCFC9D
:10169000039034E5274B98465DE4264B571C98464B
:1016A000FFE40FAA59460898FFF7D8F9002800D19F
:1016B00086E6FCE60623039393E7029B944699464D
:1016C0001B4B984638E60CABDB79019598464B46A8
:1016D0000993009B039300230093FFF7D9FA099B1A
:1016E0001A1D1B680093002B02DA01235B42009352
:1016F000637809920C00FFF775FA61460CAAD17164
:1017000043E562460CABDA7175E562460CABDA7103
:1017100025E562460CABDA71FFF79EFB61460CAA29
:10172000D171F8E461460CAAD171FFF727FBC046DE
:10173000EC3C0000DC3C0000F0B5150002221E4C21
:101740001F008B89A54493436A4693814B6E060024
:101750001993CB8916A8D381CB690C0007934B6AE8
:1017600009931AAB009304938023DB000293059343
:101770000023069300F0EEFD2A003B00694630008E
:10178000FFF7ACF9051E0EDA6B469B895B0603D5A5
:101790004022A3891343A381169800F0DDFD2800A1
:1017A000064B9D44F0BD6946300000F0BBF90028AF
:1017B000EAD001256D42E7E794FBFFFF6C040000CF
:1017C000334B70B5050018680C00002802D0836BFD
:1017D000002B3DD00C23E25E93B219070DD5216991
:1017E000002915D0DA0722D50023A3606369002001
:1017F0005B42A361002922D070BDD90640D55B07AA
:1018000029D4216908231343A3819BB20029E9D17C
:10181000A0228020920080001A408242E2D0210063
:10182000280000F0CFFDA3892169DA07DCD400226B
:101830009B0700D46269A26000200029DCD10C2241
:10184000A35E1A06D8D540221343A3810138D3E7FB
:1018500000F0C2F9BEE7216B00290AD02300403313
:10186000994204D0280000F0D9FA0C23E25E00234C
:10187000236324239A430023216963602160C1E725
:1018800009232B60402301201A43A2814042B3E781
:1018900000000020034B10B5002B02D0024800F0DE
:1018A00091F810BD00000000591C0000F0B5DE46A4
:1018B00057464E464546E0B53F4B87B01B680590FE
:1018C000180001930F0000F049FD3C4B1B68039387
:1018D0004933FF330493A422039B52009E58002EE9
:1018E0004BD0049B9A4601239B467468651E32D4F4
:1018F000C4235B00994604339C46B44463460134D8
:10190000A4003419B144019302E0043C013D22D308
:10191000002F04D0631CFF331B68BB42F5D17368F2
:101920002268013BAB4233D000232360002AECD075
:101930007368494698465B46AB400968194229D10D
:10194000904773684345C6D153461B68B342C2D122
:10195000043C013DDCD21A4B002B0ED07268336878
:10196000002A22D1002B20D052463000136000E024
:1019700000BF53461E68002EB7D10F4B186800F009
:10198000EFFC07B03CBC90469946A246AB46F0BD82
:101990007560CBE7210001988031006809680290EA
:1019A000184205D105989047CBE7B2461E00E2E702
:1019B00008009047C5E7C04630040020443B0000C3
:1019C0000000000010B5010000230022002001F0FB
:1019D000FFFB10BDF0B5C64600B50C23CA5E8046BD
:1019E00093B20C00190746D480231B01134362688D
:1019F000A381002A5FDDA56A002D5FD042464146E3
:101A0000166800229BB20A60E169DA0400D57EE024
:101A1000012300224046A847431C55D0A389A56A4C
:101A2000E1695B0706D56368C01A236B002B01D000
:101A3000E36BC01A002302004046A847431C4FD066
:101A4000A389364A13400022626022691BB2A38137
:101A50002260DB0459D44346216B1E6000292DD03F
:101A600023004033994202D0404600F0D7F90023CA
:101A70000020236323E02669002E1FD02268266001
:101A8000951B00229B071DD0A260002D04DC15E0F1
:101A900036182D1A002D11DD2B003200E169404669
:101AA000676AB8470028F3DCA3894022012013436A
:101AB000A381404203E0E26B002A9CDC002004BCCE
:101AC0009046F0BD6269DFE743461B68002BA5D056
:101AD0001D2B01D0162B1CD1434600201E60EEE7C3
:101AE00043461D680C22A35E1D2DDED80C49012241
:101AF000E9408A43D9D10949626022690B40A38138
:101B00002260DB04A7D5002DA5D12065A3E7206DB9
:101B100087E74022A3891343A381D0E7FFF7FFFFA4
:101B20000100402070B505000C00002802D0836B36
:101B3000002B16D00C22A35E0026002B0FD0626E65
:101B4000D20701D49B0513D521002800FFF742FFDF
:101B5000636E0600DB0702D4A3899B0504D5300021
:101B600070BD00F039F8E5E7A06D00F0F9FBF6E78D
:101B7000A06D00F0F3FBE7E7002310B5040003605D
:101B80004360836081814366C281036143618361F5
:101B9000082200215C30FEF713FF2000064BE461B1
:101BA0002362064B58306362054BA362054BE36228
:101BB00000F0D0FB10BDC0466D2F0000952F000037
:101BC000D12F0000FD2F000010B5024900F08EFB60
:101BD00010BDC046E932000070B50400144D280065
:101BE00000F0BCFBA36B002B1DD1124A0421E26361
:101BF000B8229200A350B92303229B00E25008337D
:101C0000E218043BE25060680022FFF7B5FF0122B2
:101C10000921A068FFF7B0FF02221221E068FFF758
:101C2000ABFF0123A363280000F09AFB70BDC04600
:101C30001C0A0020C91B000010B5024800F08EFBF2
:101C400010BDC046300A002010B5024800F088FBE5
:101C500010BDC046300A002070B5094B094CE41A8B
:101C6000A41009D0084AA518AD00ED182B68013C56
:101C70009847043D002CF9D101F026FE70BDC04606
:101C8000B8090020BC090020FFFFFF3FF0B5CE4699
:101C9000474680B583B081468846140000F04CFB6F
:101CA000012803D14346013BFE2B2ED9230001AF6F
:101CB0005C3342463900484601F03CFA0600431CBA
:101CC00029D000281FD03978002507E023685A1C46
:101CD000226019700135B54215D2795DA368013BC8
:101CE000A360002BF2DAA269934201DB0A29EDD14D
:101CF0002200484601F0BAF9431CEBD103B00CBCFA
:101D000090469946F0BD4046F8E7434601AFD9B248
:101D100039700126D8E74022A3891343A381EDE758
:101D200070B514000C23D25E636E0E00050091B2F4
:101D3000DB0701D48B051AD580239B01194204D1FE
:101D40001A43A281626E13436366280022003100A9
:101D5000FFF79CFF636E0500DB0702D4A3899B0598
:101D600001D5280070BDA06D00F0FAFAF9E7A06D6A
:101D700000F0F4FA0C23E25E91B2DDE7F8B50C0056
:101D8000060000F0F9FE204FBB685D6803239D4309
:101D90001E4B2C1B9C466444240B1D4B013C24030E
:101DA0009C4207DD0021300001F0CEF8BB685B19D2
:101DB000984204D0300000F0E7FE0020F8BD6142F8
:101DC000300001F0C1F8431C0DD00122BB682D1B6F
:101DD00015435D600F4B30001A68141B1C6000F047
:101DE000D3FE0120EAE70021300001F0ADF8BA6827
:101DF000831A0F2BDEDD08490968401A054908607F
:101E000001210B435360D5E7A0050020EF0F000030
:101E1000FF0F0000D8090020A8090020F8B5CE4621
:101E20004746050080B50C1E55D000F0A5FE2100E8
:101E300008394F68012438000323A0430A18566864
:101E40009E43B146644EB368934229D04B465360DB
:101E5000D3189C463C4242D10F68C91B8B68C019FD
:101E6000984663465F6808239C46B4442740E04593
:101E70006AD04346CC68DC60A360002F32D10124D5
:101E800048440443A0469368544C0F18A34200D121
:101E90007FE0D268DA60936043464B60386025E0AB
:101EA00003004B443C4206D10A68891A88689B1893
:101EB000CA68C260906001221A434A60484AB16011
:101EC00012689A4204D8474B28001968FFF756FF5A
:101ED000280000F059FE0CBC90469946F8BD5F689A
:101EE0002740CCD0012303434B6008503E4B98421F
:101EF0001AD9430A042B33D88209140039323834F2
:101F0000D200B218083A936803279A4239D05C6825
:101F1000BC43844233D99B689A42F8D1D368CB60E2
:101F20008A609960D160D3E7C008FF3B8210FF3B15
:101F300093407268C000134373608619B368CE6023
:101F40008B60B160D960C3E7002F41D10300906876
:101F50004B44D2681C43C26090604C60CB50B7E7E2
:101F6000142B07D9542B1CD8020B14006F326E347B
:101F7000D200C6E71C005C335B34DA00C1E71A000C
:101F8000CCE70123A410A3407068034373601300DF
:101F9000C5E7D9609960CB608B6043464B60386081
:101FA00096E7AA225200934205D8C20B1400783259
:101FB0007734D200A5E70D4A934205D8820C14006D
:101FC0007D327C34D2009CE7FE227E24920098E78A
:101FD00004434C6010607BE7A0050020A8050020AA
:101FE000AC090020080A0020FF0100005405000091
:101FF000F0B54546DE4657464E46E0B5936883B099
:1020000000900D009046002B2DD08B891A0732D5F9
:102010000A69002A2FD0424616689A0737D56B6A9C
:1020200000279A46AD4B00249946E969002C16D04A
:1020300023004C4500D9A94B3A000098D04700280E
:1020400000DC8FE043469B683F18241A181A434669
:10205000986008D06B6AE9699A46002CE8D1376825
:1020600074680836E2E7002003B03CBC904699460D
:10207000A246AB46F0BD29000098FFF7A1FB00285F
:1020800000D028E14246AB8916689A07C7D4DA0720
:1020900070D4002291468022920000279346AC68BB
:1020A0002868002F53D05A46134200D1A8E0A24618
:1020B000BC4200D9D7E09022D20013422ED0296929
:1020C000441AA4466869019442001218D00F82187D
:1020D000781C521060449246904201D98246020018
:1020E0005B0500D4D0E01100009800F0B3F9041EA5
:1020F00000D1EAE0019A296900F0ACFCAB89784A8A
:10210000134080221343AB815246019B2C61E0189F
:10211000BA463C00D31A28606A61AB605246494611
:1021200000F0DCFCAB681C1BAC603C0000272B689B
:1021300053442B6043469B68A1441C1B43469C6050
:1021400000D190E7AC682868AB89002FABD132682A
:10215000776891460836A4E729000098FFF7E2FC6B
:1021600000282DD00C22AB5E402201201343AB810E
:10217000404279E7002399469A46330000204E46B4
:102180000027994625E000282FD0B346BE4200D94B
:10219000BB4628682A696B69904203D9AA689C18D3
:1021A000A34563DC5B4500DD82E06C6A5246E96969
:1021B0000098A047041ED5DD361B0120002ECBD091
:1021C00043469B68A2443F1B1C1B43469C6000D1B6
:1021D00049E7002FD7D14B461B689A464B465F68AC
:1021E00008239C46E144002FF5D03A000A215046CE
:1021F00000F0F0FB002859D053460130C61AC4E75E
:102200002B69834217D36B699A46BB4213D8354B6F
:1022100038009F4200D93448514601F01FF9534617
:102220004A464343E96900986C6AA047002899DD53
:1022300004003F1B7EE7BC4200D93C002200494617
:1022400000F04CFCAB682A681B1B1219AB602A60BB
:10225000002BEED129000098FFF764FC002800D085
:1022600080E73F1B66E73C00BA4657E7514622002D
:1022700000F034FC2B6829001B192B600098FFF735
:1022800051FC002898D06DE7009800F085FC041EF2
:1022900000D039E7009C29692000FFF7BFFD8022AC
:1022A000AB899343743A1BB222605DE77E1C6CE7F6
:1022B0005A46514600F012FC5A46AB685C469B1ADF
:1022C000AB602B685B442B6076E70C23009A1360AD
:1022D0000C22AB5E48E701204042C5E600FCFF7FD0
:1022E0007FFBFFFFFEFFFF7FFFFFFF7FF8B5474645
:1022F000CE4680B5B8278046BF00474489460026B1
:10230000002F14D07B68BC685D1E0DD4A389012BFF
:1023100007D90E22A35E013303D021004046C847EF
:1023200006436834013DF1D23F68002FEAD1300006
:102330000CBC90469946F8BD044B1B685B6B002BA8
:1023400000D1034B94225200985C7047000000209B
:10235000340400207047C0467047C0467047C046EE
:102360007047C04670B50C001E000E23C95E96B0C3
:10237000150000290EDA00233360A3891B0605D45B
:1023800080230020DB002B6016B070BD40230020AE
:102390002B60F9E76A4601F013F80028EBDBF02226
:1023A000019B12021340064A8020944663445A421D
:1023B000534133608023DB002B600001E4E7C0461B
:1023C00000E0FFFF70B58B8982B006000C009B0710
:1023D00007D523004333236023610123636102B0E7
:1023E00070BD01AB6A46FFF7BDFF009905003000E4
:1023F00000F030F800281ED08022154BF363A3892B
:1024000020601343009A1BB26261019AA38120618C
:10241000002A02D12B43A381E1E70E23E15E3000C5
:1024200000F0E2FF002810D00322A3899343012289
:1024300013431BB2EEE70C22A35E9A05CFD403220E
:10244000934302221343A381C3E70C22A35EE1E777
:10245000C91B0000F0B557464546DE464E46E0B57E
:102460000D000B3583B00700162D28D8102900D990
:10247000C1E000F081FB102518230220CC4EF31898
:102480001A005C68083A944200D15BE10323626859
:102490009A431300E268A168CA6091600122E318C0
:1024A000596838000A435A6000F06EFB200008307B
:1024B00003B03CBC90469946A246AB46F0BD07230C
:1024C0009D4300D597E0A94200D994E000F054FB69
:1024D000F823FF339D4200D859E1680A00D18EE00D
:1024E000042800D934E138239846A80980443930BB
:1024F000C100AF4E71180839CC68A14218D003232F
:1025000062689A431300521B0F2A00DD18E1002A6B
:10251000C0DA03239C4608E06246636893435A1B73
:102520000F2A00DD0CE1002AB4DAE468A142F3D1FD
:10253000320034690832944267D0032361689943BA
:102540008A460B00491B0F2900DD0DE172613261E3
:102550000029A3DA974A924500D94AE1DB08FF3AFD
:102560009910FF3A8A40DB0071689B190A43996809
:102570007260E360A1609C60CC600121831099408F
:10258000914248D80A4205D10323984349000430B8
:102590000A42FBD003239846C3009946B144CC4677
:1025A00082466346DC68A44507D1F4E0002A00DBDC
:1025B00010E1E468A44500D1EDE04246636893432E
:1025C0005A1B0F2AF2DD0120804661190543656020
:1025D000A068E5680836C560A8604046F160B16053
:1025E00010434860CE608E603800E25000F0CCFAB4
:1025F000200008305CE70C2300203B6058E7802176
:102600003F2389004020984673E7012172688310B8
:1026100099409142B6D90323B46862689A439046C0
:10262000AA4202D3531B0F2B7CDC634A634B9346B5
:102630001B681268EB18013200D13BE1604A9446F6
:1026400063441B0B1B0301930199380000F07CFCD1
:1026500003008146013300D1F9E04346E318834289
:1026600000D9F2E0574A01999246126894465246C0
:1026700061441160834200D13EE15A461268013242
:1026800000D155E14A46D31A591853461960072319
:102690004A46134000D123E1082189464A49D21A0B
:1026A0009144CB1A019A38004A441105090D5B1A6E
:1026B00019009B4600F048FC431C00D134E14B4616
:1026C000C01A01235844184353461B685B44190041
:1026D000534619604B46B3605860B44212D043462B
:1026E0000F2B00D81CE1072260680C3B9343063A8D
:1026F000024005201A436260E218506090600F2B80
:1027000000D933E1314B1A68914200D91960032393
:10271000B46862689A432E4B1868814200D89AE0E8
:10272000196098E001222900134311436519616083
:102730003800B5606B6000F027FA20000830B7E67B
:102740004046F5E6DC680230A34200D1F0E69DE6A3
:10275000142874D9542800D9AFE06E239846280B6A
:1027600080446F30C100C4E6012360191D436560D9
:1027700070613061C26082601A0053460A43426051
:102780003800E15000F000FA2000083090E62B00FD
:10279000E808083372E608239B46073BDC449B4667
:1027A000DA4443465246134200D0FAE66DE0C04692
:1027B000A0050020FF010000A8090020080A002051
:1027C0000F100000D809002008100000000A0020A7
:1027D000040A00200122E318596838000A435A60AD
:1027E000E368A268D3609A6000F0CEF92000083058
:1027F0005EE65A0A042A39D9142A74D85B2398460B
:1028000090445C32D20008235B429C46B218944448
:1028100063469968032399468C4559D04B464A68CC
:102820009A43524502D989688C45F7D1CB687268C2
:102830009C466346A160E3609C60CC609DE65B23A0
:10284000984680445C30C10053E6B44274D0032300
:10285000B46862689A43531B954202D80F2B00DD7F
:1028600060E7380000F090F9002021E69A0938234B
:10287000984690443932D200C5E74B461A68083B67
:10288000013891469A4200D087E043460342F4D192
:1028900073688B4373604900994200D9BBE60029F5
:1028A00004D1B8E6042294464900E2440B42F9D030
:1028B000504671E610330193C6E6AA235B009842A6
:1028C00024D8DD3B9846E80B80447830C10010E600
:1028D000434601229B109A4073681A437260A8E72E
:1028E00080235B01DEE6542A2FD81A0B6E2398460C
:1028F00090446F32D20086E71A0500D0BDE6012071
:10290000019BB268434403435360FBE6244B984267
:1029100026D87C239846A80C80447D30C100E8E589
:1029200001234A4653609CE7002301209B46CBE6E7
:102930005B464A461A60AAE61A4A0199924612680C
:10294000944652466144116097E6AA2149008A42A2
:1029500014D8DA0B7723984690447832D20052E7A5
:10296000FE217E2389007F209846C2E521003800A1
:102970000831FFF753FA53461968C3E608498A42FB
:1029800006D89A0C7C23984690447D32D2003AE7D0
:10299000FE227E239200984635E773687BE7C046A7
:1029A00054050000D809002082B000290AD0002A6E
:1029B0000BD0002B0BD013780B601078431E98417E
:1029C00002B0704701A9002AF3D10020F8E70220E5
:1029D0004042F5E770B5CCB2830734D0531E002ACD
:1029E0001BD00278A24219D0032504E0013B14D386
:1029F0000278A24212D001302842F7D1032B0ED820
:102A0000002B0AD00278A24208D0C31802E0027854
:102A1000A24203D001308342F9D1002070BDFF22D1
:102A20000D062D0C114029430D04084E0D4302687C
:102A300007496A40511891433142E3D1043B0430C5
:102A4000032BF4D8DCE71300D8E7C04680808080F1
:102A5000FFFEFEFEF0B50F2A37D90D0005430C002E
:102A60000300AD0735D11500103D2D092E01361894
:102A7000103627681F6067685F60A7689F60E76817
:102A80001034DF601033B342F3D10F2401352D0130
:102A9000491914404519032C1DD90023CE58EE5076
:102AA0000433E61A032EF9D80323043CA4080134A6
:102AB000A4001A402D190919002A05D00023CC5C66
:102AC000EC5401339342FAD1F0BD0500002AF5D150
:102AD000FAE70500F2E72200F8E7C046F0B58842C1
:102AE0000AD98B18984207D2531E002A03D0CA5C19
:102AF000C254013BFBD2F0BD0F2A09D80500002AC1
:102B0000F9D00023CC5CEC5401339342FAD1F2E7C4
:102B10000D0005430C000300AD0729D11500103D41
:102B20002D092F013F18103726681E6066685E6009
:102B3000A6689E60E6681034DE601033BB42F3D1B5
:102B40000F2401352D01491914404519032C11D9C1
:102B50000023CE58EE500433E61A032EF9D803238F
:102B6000043CA4080134A4002D1909191A40C6E731
:102B70000500C6E72200C2E710B50248FFF7EEFBEA
:102B800010BDC046200A002010B50248FFF7E8FB40
:102B900010BDC046200A0020F0B5DE465746454627
:102BA0004E46E0B5934685B007000D1E00D1A9E062
:102BB0002E00083EFFF7E0FF736803221C009443D9
:102BC0005A460B32B146162A43D81022924600923A
:102BD000D34543D8009A31198846944276DAD44ACC
:102BE0009168414500D1B6E042465068012102009B
:102BF0008A439446C444624652680A4200D186E041
:102C0000194230D059463800FFF724FC804600288E
:102C10001BD0012372689A43B3180200083A93420A
:102C200000D125E1221F242A00D931E129680300BF
:102C3000132A00D912E12A0019605168596092687C
:102C40009A6029003800FFF7E9F83800FFF79CFF89
:102C500050E007218A4392460092B9D50C233B608D
:102C60000023984646E03368F31A01935B680293A9
:102C70000323029A9A431300009AE11802919142A9
:102C8000C0DB0198844606008268C3686144D36053
:102C90009A60221F08368846242A00D9EFE0296866
:102CA0003300132A09D981606B68C3601B2A00D9DD
:102CB00004E110300300A968083519606A68029CB5
:102CC0005A60AA6835009A60019B994653464A4665
:102CD000E01A012352681A400F282AD84946224395
:102CE0004A60424652681343424653603800FFF739
:102CF0004BFFA846404605B03CBC90469946A246CC
:102D0000AB46F0BD1100FFF7A5FB8046F2E70322BA
:102D100090439446009A02902018904269DB434603
:102D20004246B046DB6892688044D36004009A60F3
:102D3000CCE7544622434C464946626042465144E1
:102D400018434860526808311343424638005360C4
:102D5000FFF764F8CAE703225046496810309143F0
:102D600009199446814200DB96E0DB0700D549E76C
:102D700062463368F31A01935B689343CA18029260
:102D8000904200DD78E701988268C3688446D3608A
:102D90009A60082262449046221F242A00D9B7E094
:102DA00029684346132A09D981606B68C3601B2ACE
:102DB00000D9B2E00300A9681033083519606A68C9
:102DC0005A60AA689A600198594B020052449A606E
:102DD00011005246029B9A1A01231A434A60416825
:102DE00000910B4051460B4343603800FFF7CCFE87
:102DF00080E7194200D005E762463368F31A019371
:102E00005B6803939343029AD1180A1900990292BE
:102E10008A4200DA30E743464246DB68926801980E
:102E2000D3609A608268C3680600D3609A60029B90
:102E300084469846221F0836E044242A1FD8296871
:102E40003300132A00D838E781606B68C3601B2AFF
:102E500034D80300A968103308352EE7016069688B
:102E600041601B2A35D82A0008330832A968E3E6F6
:102E70000322B0465B689343E418A04426E7290088
:102E80003000FFF72BFE019B3500029C99461DE7A1
:102E90002900FFF723FED4E65346254AF318936032
:102EA00052460124891A21435960736838001C4036
:102EB00014437460FFF768FEA8461BE7A968019BEE
:102EC0001961E9685961242A0ED02969183310352F
:102ED000F3E6A9688160E968C160242A0ED02A005F
:102EE000103310322969A7E62B69019A9361130008
:102EF00069692033D161A9691835DEE62A690100C4
:102F000002612A006869183248611833A96993E69A
:102F100029004046FFF7E2FD55E7A968019B1961CA
:102F2000E9685961242A05D029691833103545E725
:102F3000A00500202B69019A936113006969203371
:102F4000D161A969183539E7002370B5064C050031
:102F50000800236000F0A2FC431C00D070BD236871
:102F6000002BFBD02B60F9E7340A002070B50C0071
:102F70000E25495F00F05EFA002803DB236D1B1865
:102F8000236570BDA389024A1340A381F9E7C046B7
:102F9000FFEFFFFFF8B516001F000C228B5E0C0040
:102FA00005000E22895EDA0507D50022022300F013
:102FB0002DFA0C22A35E0E22A15E044A28001340C3
:102FC000A38132003B0000F0EFF8F8BDFFEFFFFFF8
:102FD00070B50C000E25495F00F018FA431C06D0AE
:102FE0008023A2895B011343A381206570BDA3895F
:102FF000014A1340A381F9E7FFEFFFFF10B50E234D
:10300000C95E00F05FF910BD10B5040083070AD057
:103010000378002B23D0032202E00378002B1CD07E
:1030200001301042F9D102680E4B0F49D318934377
:103030000B420FD1043002680A4BD31893430B4262
:1030400008D104300268074BD31893430B42F1D0E8
:1030500000E001300378002BFBD1001B10BD0020E5
:10306000FCE7C046FFFEFEFE80808080F8B50600CB
:103070000D001400002802D0836B002B4BD0A369F5
:10308000A3600C23E25E91B20B071FD52369002BCE
:103090001CD0FF20EFB2054080208001014226D0E5
:1030A00022686169D31A99422CDD0133A168013984
:1030B000A160511C2160177062699A422ED0A389C9
:1030C000DB0701D50A2D29D02800F8BD21003000EA
:1030D000FEF776FB002827D1FF20EFB205408020C5
:1030E0000C23E25E800191B223690142D8D10243F0
:1030F000616EA2810E4A0A40626661692268D31A33
:103100009942D2DC21003000FEF70CFD00280BD1E3
:1031100022680123CAE7FEF75FFDB0E72100300017
:10312000FEF700FD0028CFD001256D42CCE7C04658
:10313000FFDFFFFF70B51D00124B84B01B68040059
:103140005B6B00290CD0002B08D0E0201E582B0010
:103150002000B047431C0ED004B070BD0A4BF4E70A
:10316000002B0DD0E02201A99E5820002B00002248
:10317000B047431CF0D100232B608A332360EBE778
:10318000014BEFE70000002034040020002904D0A8
:10319000FF2A04D801200A7070470020FCE78A2328
:1031A000036001204042F7E770B5050008001100F8
:1031B0000022064C22601A00FDF7A2FA431C00D040
:1031C00070BD2368002BFBD02B60F9E7340A002088
:1031D000F0B54E464546DE465746E0B5364D83B01F
:1031E0000600286898460F009146FFF7B7F8334B62
:1031F0001C68A4235B00E058002852D043681F2BB2
:1032000013DC5A1C0192002E28D1019A02339B0034
:1032100042601F502868FFF7A3F8002003B03CBCB1
:1032200090469946A246AB46F0BD254B002B3DD0BB
:10323000C820400000E000BF002837D0A4220023AF
:103240005200A15843600160A050403283500432C4
:103250008350013301930023002ED6D09A0092466A
:1032600082444A46882154466250C4225200914604
:1032700081444A468739994012688B460A439446EE
:103280004A4661461160842241465200A150022EF6
:10329000BBD102005C468D32FF3211680C431460D2
:1032A000B3E720004D30FF30E050A7E72868FFF774
:1032B00057F801204042B1E730040020443B0000B1
:1032C00000000000002370B5064C050008002360D4
:1032D00000F0BCFA431C00D070BD2368002BFBD06B
:1032E0002B60F9E7340A002070B505000C1E47D0AA
:1032F000002802D0836B002B48D001260C22A35E4D
:10330000626E32423FD19B0530D521002800FEF786
:1033100061FBE36A0600002B04D0E16928009847AE
:1033200000283CDBA3891B063CD4216B002908D074
:1033300023004033994202D02800FEF76FFD00239E
:103340002363616C002904D02800FEF767FD002389
:103350006364FEF771FC0023A381636EDB0726D54F
:10336000A06DFEF7F9FFFEF76FFC0AE0A06DFEF717
:10337000F5FF0C22A35E002BC7D1636E1E401AD04E
:103380000026300070BD002BFAD0BEE70126FEF704
:1033900023FC0C22A35E626E3242F4D1B3E7012615
:1033A0007642BFE721692800FEF738FDBDE7A06D32
:1033B000FEF7D6FFD4E7A06DFEF7D2FFE1E7C046E7
:1033C000002370B5074C050008001100236000F0D1
:1033D00045FA431C00D070BD2368002BFBD02B6046
:1033E000F9E7C046340A0020002370B5064C0500FA
:1033F0000800236000F03AFA431C00D070BD236837
:10340000002BFBD02B60F9E7340A002070B50500D3
:10341000080011000022064C22601A0000F02EFA6B
:10342000431C00D070BD2368002BFBD02B60F9E754
:10343000340A002070B50500080011000022064C77
:1034400022601A0000F022FA431C00D070BD2368ED
:10345000002BFBD02B60F9E7340A002003460B4316
:103460007FD4002243088B4274D303098B425FD37D
:10347000030A8B4244D3030B8B4228D3030C8B42A9
:103480000DD3FF22090212BA030C8B4202D312128F
:10349000090265D0030B8B4219D300E0090AC30B64
:1034A0008B4201D3CB03C01A5241830B8B4201D311
:1034B0008B03C01A5241430B8B4201D34B03C01AFA
:1034C0005241030B8B4201D30B03C01A5241C30A72
:1034D0008B4201D3CB02C01A5241830A8B4201D3E3
:1034E0008B02C01A5241430A8B4201D34B02C01ACD
:1034F0005241030A8B4201D30B02C01A5241CDD272
:10350000C3098B4201D3CB01C01A524183098B42BC
:1035100001D38B01C01A524143098B4201D34B01A5
:10352000C01A524103098B4201D30B01C01A524108
:10353000C3088B4201D3CB00C01A524183088B428F
:1035400001D38B00C01A524143088B4201D34B0078
:10355000C01A5241411A00D20146524110467047EA
:103560005DE0CA0F00D04942031000D340425340EF
:1035700000229C4603098B422DD3030A8B4212D3AF
:10358000FC22890112BA030A8B420CD389019211E1
:103590008B4208D3890192118B4204D389013AD01E
:1035A000921100E08909C3098B4201D3CB01C01AF3
:1035B000524183098B4201D38B01C01A5241430906
:1035C0008B4201D34B01C01A524103098B4201D3F4
:1035D0000B01C01A5241C3088B4201D3CB00C01A61
:1035E000524183088B4201D38B00C01A5241D9D279
:1035F00043088B4201D34B00C01A5241411A00D2FA
:103600000146634652415B10104601D34042002BF5
:1036100000D54942704763465B1000D3404201B574
:10362000002000F005F802BD0029F8D016E7704729
:103630007047C046002B11D1002A0FD1002900D1BC
:10364000002802D00021C943081C07B4024802A187
:103650004018029003BDC046D9FFFFFF03B468467F
:1036600001B5029800F006F8019B9E4602B00CBC22
:103670007047C046F0B54F464646D646C0B5040032
:1036800082B00D00914698468B422FD82CD04146EF
:10369000484600F0B1F829000600200000F0ACF820
:1036A000331A9C46203B9A4600D576E04B4652465C
:1036B00093401F004B46624693401E00AF4228D8FD
:1036C00025D05346A41BBD41002B00DA7BE000222D
:1036D000002300920193012352469340019301235A
:1036E00062469340009318E08242D0D90022002322
:1036F000009201930A9B002B01D01C605D60009832
:10370000019902B01CBC90469946A246F0BDA34266
:10371000D7D900220023009201936346002BE9D001
:10372000FB079846414672080A437B0866460EE04E
:10373000AB4201D1A2420CD8A41A9D410120241908
:103740006D410021013E24184D41002E06D0AB42B0
:10375000EED9013E24196D41002EF8D1009801994F
:10376000534600196941002B23DB2B005246D340FE
:103770002A006446E2401C0053461500002B2DDB56
:1037800026005746BE40330026006746BE40320042
:10379000801A994100900191ACE7624620239B1A60
:1037A0004A46DA406146130042468A4017001F43EA
:1037B00080E7624620239B1A2A0066469A4023002F
:1037C000F3401343D4E76246202300219B1A0022D2
:1037D000009101920122DA40019280E720236246A3
:1037E00026009B1ADE402F00B0466646B74046468C
:1037F0003B003343C8E7C04610B5002903D100F0B1
:1038000007F8203002E0081C00F002F810BDC046A6
:103810001C2101231B04984201D3000C10391B0A00
:10382000984201D3000A08391B09984201D30009C4
:10383000043902A2105C40187047C046040302021B
:1038400001010101000000000000000058220120D9
:10385000014B40421A607047340A00205822012070
:10386000014B40421A607047340A00205822024B34
:1038700000201A607047C046340A002058220120F8
:10388000014B40421A607047340A00205822012040
:10389000014B40421A607047340A0020044A136802
:1038A000002B00D1034B1818106018007047C04659
:1038B0000C0A0020380A0020FEE7C046F8B5C046D2
:1038C000F8BC08BC9E467047F8B5C046F8BC08BCBA
:1038D0009E46704766756E6B657220646574746190
:1038E0003F202563200A0D000000000000000000BA
:1038F00000000000000000000000000000000000C8
:1039000000000000000000000000000000000000B7
:1039100000000000000000000000000000000000A7
:103920000000000000000000000000000000000097
:103930000000000000000000000000000000000087
:103940000000000000000000000000000000000077
:103950000000000000000000000000000000000067
:103960000000000000000000000000000000000057
:103970000000000000000000000000000000000047
:10398000000000000000000000000000001E05050F
:103990001E001F15150A000E111111001F11110E26
:1039A000001F151515001F050505000E151508004B
:1039B0001F04041F00001F0000000810100F001F4C
:1039C000040A11001F101010001F0204021F1F0222
:1039D000041F000E11110E001F050502000E11112B
:1039E0001E101F05051A001715151D0001011F01E6
:1039F000010F10100F00030C100C031F0804081F08
:103A0000110A040A1101021C0201111915131100F7
:103A100000000000000000000000000000000000A6
:103A20000000000000000000000000000000000096
:103A30000000000000000000000000000000000086
:103A40000000000000000000000000000000000076
:103A50000000000000000000000000000000000066
:103A60000000000000000000000000000000000056
:103A70000000000000000000000000000000000046
:103A80000000000000000000000000000000000036
:103A90000000000000000000000000000000000026
:103AA0000000000000000000000000000000000016
:103AB0000000000000000000000000000000000006
:103AC00000000000FFFFFFFFFFFFFFFFB00300004B
:103AD0002004000090040000000500006E050000B6
:103AE000C4030000D6030000E8030000FA0300004E
:103AF0000C040000340400004604000058040000D8
:103B00006A0400007C040000A4040000B604000065
:103B1000C8040000DA040000EC04000012050000F4
:103B20002405000036050000480500005A05000085
:103B30008005000092050000A4050000B605000005
:103B4000C805000008000020060E0000740D0000EB
:103B5000740D0000FE0D0000740D0000740D0000D7
:103B6000740D0000740D0000740D0000740D000051
:103B7000E60D0000DC0D0000740D0000D40D000007
:103B80009C0D0000740D0000940D00004A0D000013
:103B90004A0D00004A0D00004A0D00004A0D0000C9
:103BA0004A0D00004A0D00004A0D00004A0D0000B9
:103BB000740D0000740D0000740D0000740D000001
:103BC000740D0000740D0000740D0000740D0000F1
:103BD000740D0000740D000058110000740D0000F9
:103BE000740D0000740D0000740D0000740D0000D1
:103BF000740D0000740D0000740D0000740D0000C1
:103C0000740D0000A60C0000740D0000740D00007F
:103C1000740D0000740D0000740D0000F80B00001E
:103C2000740D0000740D000010110000740D0000F0
:103C3000740D0000740D0000740D0000740D000080
:103C4000740D0000740D0000740D0000740D000070
:103C5000740D0000BA0E0000500E0000740D00003C
:103C6000740D0000740D0000400E0000500E0000A6
:103C7000740D0000740D0000320E0000740D000081
:103C8000F0110000AA0C0000C8110000E8110000AB
:103C9000740D0000D0100000740D0000FC0B00003B
:103CA000740D0000740D00008411000030313233B7
:103CB0003435363738394142434445460000000028
:103CC0003031323334353637383961626364656692
:103CD00000000000286E756C6C2900002020202058
:103CE0002020202020202020202020203030303094
:103CF0003030303030303030303030304300000041
:103D0000504F5349580000002E0000000020202092
:103D1000202020202020282828282820202020207B
:103D2000202020202020202020202020208810104B
:103D300010101010101010101010101010040404A7
:103D40000404040404040410101010101010414165
:103D50004141414101010101010101010101010153
:103D60000101010101010101101010101010424267
:103D70004242424202020202020202020202020223
:103D800002020202020202021010101020000000C3
:103D90000000000000000000000000000000000023
:103DA0000000000000000000000000000000000013
:103DB0000000000000000000000000000000000003
:103DC00000000000000000000000000000000000F3
:103DD00000000000000000000000000000000000E3
:103DE00000000000000000000000000000000000D3
:103DF00000000000000000000000000000000000C3
:103E000000000000000000000000000000000000B2
:043E100000000000AE
:083E1400F4C2FF7F0100000071
:103E1C00080000200000000000000000F402002058
:103E2C005C030020C4030020000000000000000020
:103E3C000000000000000000000000000000000076
:103E4C000000000000000000000000000000000066
:103E5C000000000000000000000000000000000056
:103E6C000000000000000000000000000000000046
:103E7C000000000000000000000000000000000036
:103E8C000000000000000000000000000000000026
:103E9C000000000000000000000000000000000016
:103EAC000000000000000000000000000000000006
:103EBC0000000000000000000000000000000000F6
:103ECC0001000000000000000E33CDAB34126DE693
:103EDC00ECDE05000B0000000000000000000000FC
:103EEC0000000000000000000000000000000000C6
:103EFC0000000000000000000000000000000000B6
:103F0C0000000000000000000000000000000000A5
:103F1C000000000000000000000000000000000095
:10424C00100A0020430000000000000000000000E5
:10425C000000000000000000000000000000000052
:10426C0000000000430000000000000000000000FF
:10427C000000000000000000000000000000000032
:10428C0000000000430000000000000000000000DF
:10429C000000000000000000000000000000000012
:1042AC0000000000430000000000000000000000BF
:1042BC0000000000000000000000000000000000F2
:1042CC00000000004300000000000000000000009F
:1042DC0000000000000000000000000000000000D2
:1042EC00000000004300000000000000000000007F
:1042FC0000000000000000000000000000000000B2
:10430C00000000004300000000000000000000005E
:10431C000000000000000000000000000000000091
:10432C00000000008D310000A929000000000000F1
:10433C000C3D0000083D0000BC3C0000BC3C0000F3
:10434C00BC3C0000BC3C0000BC3C0000BC3C000081
:10435C00BC3C0000BC3C0000BC3C0000FFFFFFFF6D
:10436C00FFFFFFFFFFFFFFFFFFFF000001004153B6
:10437C00434949000000000000000000000000005C
:10438C00000000000000000000000000000041538D
:10439C00434949000000000000000000000000003C
:1043AC000000000000000000000000000000000001
:1043BC000000000000000000A0050020A005002067
:1043CC00A8050020A8050020B0050020B00500209D
:1043DC00B8050020B8050020C0050020C00500204D
:1043EC00C8050020C8050020D0050020D0050020FD
:1043FC00D8050020D8050020E0050020E0050020AD
:10440C00E8050020E8050020F0050020F00500205C
:10441C00F8050020F805002000060020000600200A
:10442C0008060020080600201006002010060020B8
:10443C001806002018060020200600202006002068
:10444C002806002028060020300600203006002018
:10445C0038060020380600204006002040060020C8
:10446C004806002048060020500600205006002078
:10447C005806002058060020600600206006002028
:10448C0068060020680600207006002070060020D8
:10449C007806002078060020800600208006002088
:1044AC008806002088060020900600209006002038
:1044BC009806002098060020A0060020A0060020E8
:1044CC00A8060020A8060020B0060020B006002098
:1044DC00B8060020B8060020C0060020C006002048
:1044EC00C8060020C8060020D0060020D0060020F8
:1044FC00D8060020D8060020E0060020E0060020A8
:10450C00E8060020E8060020F0060020F006002057
:10451C00F8060020F8060020000700200007002005
:10452C0008070020080700201007002010070020B3
:10453C001807002018070020200700202007002063
:10454C002807002028070020300700203007002013
:10455C0038070020380700204007002040070020C3
:10456C004807002048070020500700205007002073
:10457C005807002058070020600700206007002023
:10458C0068070020680700207007002070070020D3
:10459C007807002078070020800700208007002083
:1045AC008807002088070020900700209007002033
:1045BC009807002098070020A0070020A0070020E3
:1045CC00A8070020A8070020B0070020B007002093
:1045DC00B8070020B8070020C0070020C007002043
:1045EC00C8070020C8070020D0070020D0070020F3
:1045FC00D8070020D8070020E0070020E0070020A3
:10460C00E8070020E8070020F0070020F007002052
:10461C00F8070020F8070020000800200008002000
:10462C0008080020080800201008002010080020AE
:10463C00180800201808002020080020200800205E
:10464C00280800202808002030080020300800200E
:10465C0038080020380800204008002040080020BE
:10466C00480800204808002050080020500800206E
:10467C00580800205808002060080020600800201E
:10468C0068080020680800207008002070080020CE
:10469C00780800207808002080080020800800207E
:1046AC00880800208808002090080020900800202E
:1046BC009808002098080020A0080020A0080020DE
:1046CC00A8080020A8080020B0080020B00800208E
:1046DC00B8080020B8080020C0080020C00800203E
:1046EC00C8080020C8080020D0080020D0080020EE
:1046FC00D8080020D8080020E0080020E00800209E
:10470C00E8080020E8080020F0080020F00800204D
:10471C00F8080020F80800200009002000090020FB
:10472C0008090020080900201009002010090020A9
:10473C001809002018090020200900202009002059
:10474C002809002028090020300900203009002009
:10475C0038090020380900204009002040090020B9
:10476C004809002048090020500900205009002069
:10477C005809002058090020600900206009002019
:10478C0068090020680900207009002070090020C9
:10479C007809002078090020800900208009002079
:1047AC008809002088090020900900209009002029
:1047BC009809002098090020FFFFFFFF000002006D
:0C47CC0095180000E9000000C10000008A
:04000003000008E908
:00000001FF
